:020000040800F2
:10000000600600206D0100087501000877010008F6
:10001000790100087B0100087D0100080000000054
:100020000000000000000000000000007F01000848
:10003000810100080000000083010008850100081C
:100040008701000887010008870100088701000870
:100050008701000887010008870100088701000860
:100060008701000887010008870100088701000850
:100070008701000887010008870100088701000840
:100080008701000887010008870100088701000830
:100090008701000887010008870100088701000820
:1000A0008701000887010008870100088701000810
:1000B0008701000887010008870100088701000800
:1000C00087010008870100088701000887010008F0
:1000D00087010008870100088701000887010008E0
:1000E00087010008870100088701000800F002F876
:1000F00000F02CF80AA090E8000C82448344AAF196
:100100000107DA4501D100F021F8AFF2090EBAE893
:100110000F0013F0010F18BFFB1A43F0010318473B
:10012000A0020000B00200000023002400250026E9
:10013000103A28BF78C1FBD8520728BF30C148BF4A
:100140000B6070471FB51FBD10B510BD00F031F832
:100150001146FFF7F7FF00F009F900F04FF803B47C
:10016000FFF7F2FF03BC00F057F800000948804792
:1001700009480047FEE7FEE7FEE7FEE7FEE7FEE789
:10018000FEE7FEE7FEE7FEE704480549054A064BA1
:1001900070470000D9020008ED0000086000002050
:1001A0006006002060020020600200207047704757
:1001B0007047754600F02CF8AE4605006946534678
:1001C00020F00700854618B020B5FFF7DDFFBDE839
:1001D00020404FF000064FF000074FF000084FF0AE
:1001E000000B21F00701AC46ACE8C009ACE8C0093F
:1001F000ACE8C009ACE8C0098D46704710B50446AC
:10020000AFF300802046BDE81040FFF7A8BF000014
:10021000004870470000002001491820ABBEFEE7EF
:1002200026000200704710B500F002F810BD000073
:100230000CB50020019000902548006840F4803003
:100240002349086000BF2248006800F40030009095
:100250000198401C0190009818B90198B0F5A06F62
:10026000F1D11B48006800F4003010B1012000906B
:1002700001E0002000900098012828D1154800686E
:1002800040F01000134908600846006820F00300A1
:1002900008600846006808600D4840680C494860DE
:1002A000084640684860084640684860084640681C
:1002B00020F0030048600846406840F001004860B4
:1002C00000BF0348406800F00C000428F9D10CBDC1
:1002D000001002400020024010B51348006840F0B2
:1002E00001001149086008464068104908400E495D
:1002F0004860084600680E4908400B4908600846F7
:10030000006820F4802008600846406820F4FE0061
:1003100048604FF41F008860FFF785FF4FF00060D2
:100320000449086010BD0000001002400000FFF802
:10033000FFFFF6FE08ED00E001200A49886108464B
:10034000806940F004008861002007490860084681
:10035000006840F0030008600846006840F00800AC
:10036000086070470010024000080140FFF7E4FFFA
:1003700000F002F800BFFEE701201049C8614FF409
:10038000FA608106888541F63F70088568200883F9
:10039000002008844FF47A708886C006008840F0F8
:1003A000800008800846008C40F001000884084660
:1003B000008840F0010008807047000000100240F3
:1003C000D00300080000002060060000280100089B
:04000005080000ED02
:00000001FF
