:020000040800F2
:10000000D806002091010008990100089B01000812
:100010009D0100089F010008A101000800000000E8
:10002000000000000000000000000000A301000824
:10003000A501000800000000A7010008A9010008B0
:10004000AB010008AB010008AB010008AB010008E0
:10005000AB010008AB010008AB010008AB010008D0
:10006000AB010008AB010008AB010008AB010008C0
:10007000AB010008AB010008AB010008AB010008B0
:10008000AB010008AB010008AB010008AB010008A0
:10009000AB010008AB010008AB010008AB01000890
:1000A000AB010008AB010008AB010008AB01000880
:1000B000AB010008AB010008AB010008AB01000870
:1000C000AB010008AB010008AB010008AB01000860
:1000D000AB010008AB010008AB010008AB01000850
:1000E000AB010008AB010008AB01000800F002F80A
:1000F00000F03FF80AA090E8000C82448344AAF183
:100100000107DA4501D100F034F8AFF2090EBAE880
:100110000F0013F0010F18BFFB1A43F0010318473B
:100120007C0700009C070000103A24BF78C878C103
:10013000FAD8520724BF30C830C144BF04680C60ED
:10014000704700000023002400250026103A28BF35
:1001500078C1FBD8520728BF30C148BF0B60704739
:10016000732900F0F880002070471FB51FBD10B53F
:1001700010BD00F0F4F81146FFF7F7FF00F000FBA8
:1001800000F012F903B4FFF7F2FF03BC00F01AF914
:100190000948804709480047FEE7FEE7FEE7FEE71B
:1001A000FEE7FEE7FEE7FEE7FEE7FEE70448054957
:1001B000054A064B7047000085050008ED00000861
:1001C000D8000020D8060020D8020020D802002045
:1001D0000FB41CB5074B06AA7B44694600900598EE
:1001E00000F08FF80020694600F09EF81CBC5DF816
:1001F00014FB00004D0100002DE9F0410E460446BD
:10020000002020622046E168884730B3252805D0C9
:10021000D4E901219047206A401CF2E7E1682046BA
:1002200000278847050018D0A5F14100192802D8F9
:1002300020354FF400673246294620462760FFF7F5
:100240008FFF40B1012804D0F61D26F007060836BE
:10025000D8E7361DD6E72846DAE7206ABDE8F08100
:1002600070B50C460546012A05D02878800600D5D1
:10027000EA69002302E0012305E05B1C934202D2FD
:10028000E05C0028F9D1A869E618C01AA861286ABC
:10029000184428622846AFF3008004E0D5E9012124
:1002A00014F8010B9047B442F8D32846AFF300800E
:1002B00070BD10B5431C02E010F8011B71B181073D
:1002C000FAD14FF0013202C88C1A8C4314EAC211E1
:1002D000F9D0C01A0A0603D0C01E10BDC01A10BD46
:1002E0000A0401D0801E10BD0902FCD0401E10BDC2
:1002F000704770477047000001694A1C0261087826
:10030000704700B58FB0CDE9013100210591054955
:100310007944CDE9031011466846FFF76DFF0FB031
:1003200000BD0000E5FFFFFF0A6802F8010B0A604C
:10033000704710B5436913B1AFF3008001E0FFF7D8
:100340008FFF012010BD127800F124010A700022F5
:100350004A700122EDE711684FF0FF32E9E7754678
:1003600000F02CF8AE4605006946534620F0070021
:10037000854618B020B5FFF719FFBDE820404FF0C3
:1003800000064FF000074FF000084FF0000B21F07F
:100390000701AC46ACE8C009ACE8C009ACE8C0094C
:1003A000ACE8C0098D46704710B50446AFF3008035
:1003B0002046BDE81040FFF7E5BE0000004870474A
:1003C0007800002001491820ABBEFEE7260002009D
:1003D000704709E002680A600A68521C12B90022DC
:1003E0000A6002E0001D091DF4E700BF704700002D
:1003F0002DE9F04105460E463046FFF75AFF00F062
:10040000030010B14FF0010801E04FF00008304642
:10041000FFF74FFF08EB9007002400201D490861FB
:1004200000F05EF9284600F037F90020194908610C
:1004300000BF1848C06800F001000028F9D1154835
:10044000006940F00100134908611CE000201249D6
:10045000086013E056F824000F4909780901C840E4
:100460002880AD1C00BF0B48C06800F001000028C8
:10047000F9D109480068401C07490860064800682F
:100480000228E7D3641CBC42E0DB00F023F9BDE89E
:10049000F0810000002002401800002010B500F09C
:1004A00001F810BD0CB500200190009033480068A1
:1004B00040F480303149086000BF3048006800F4E3
:1004C000003000900198401C0190009818B90198E4
:1004D000B0F5A06FF1D12948006800F4003010B1E8
:1004E0000120009001E0002000900098012843D1F5
:1004F0002348006840F01000214908600846006861
:1005000020F0030008600846006840F00200086020
:100510001A484068194948600846406848600846DB
:10052000406840F4806048600846406820F47C10D1
:1005300048600846406840F450104860084600682B
:1005400040F08070086000BF0C48006800F0007048
:100550000028F9D00948406820F0030007494860A6
:100560000846406840F00200486000BF0348406809
:1005700000F00C000828F9D10CBD0000001002406A
:100580000020024010B51348006840F001001149F6
:10059000086008464068104908400E49486008460F
:1005A00000680E4908400B4908600846006820F4BE
:1005B000802008600846406820F4FE0048604FF440
:1005C0001F008860FFF76AFF4FF000600449086071
:1005D00010BD0000001002400000FFF8FFFFF6FE13
:1005E00008ED00E02DE9F04105460C462046FFF7F6
:1005F00060FE00F0030008B1012700E0002720465C
:10060000FFF757FE07EB90008600002011490860B5
:1006100019E0104A1168CA1701EB9272921054F84F
:1006200022200C4B1868C31700EB93739B10A0EBB0
:100630008303DB00DA40074B1B68EA540548006877
:10064000401C0449086003480068B042E1DBBDE893
:10065000F08100001C00002000200E49086004E02A
:100660000C480068401C0B4908600A480068B0F557
:100670007A7FF5D300200749086004E00548006848
:10068000401C044908600348006841F288318842F0
:10069000F4D370471400002000BF0D49C96801F071
:1006A00001010029F9D10A49096941F00201084A0A
:1006B000116111464861096941F04001116100BFB3
:1006C0000349C96801F001010029F9D17047000010
:1006D000002002408020014908617047002002404C
:1006E0000248034948600348486070472301674552
:1006F00000200240AB89EFCD1E48806900201D49D3
:1007000088610846C0690020C8610846806940F0D9
:10071000080088610846806940F01000886108463A
:10072000C06940F48020C861134800680020124965
:1007300008600846006840F4407008600846006899
:1007400040F4006008600846006820F480500860AB
:100750000846006840F4804008600848406840F45B
:100760008010064948600846406820F480004860D0
:100770007047000000100240040C014000100140CE
:10078000FFF7BAFF00F030F80C4800F069F80C48A9
:1007900001680C48FFF72CFE0B490A48FFF719FEC9
:1007A00009490A48FFF71EFF084A09A10D48FFF74B
:1007B0000FFD0C4800F054F800BFFEE704000020D5
:1007C0000000002000D4010820000020300000209C
:1007D00020666C6173685F64617461733A2025738D
:1007E0000D0A00004400002015480088002014492C
:1007F0000880081D00880020091D0880081D008849
:100800000020091D08800E48001F008800200C49A8
:10081000091F08800846008840F480700880084658
:10082000008840F004000880081D008840F008009F
:10083000091D08800846008840F400500880704771
:100840000C48004000BF0549098801F080010029DB
:10085000F9D00249091D0880704700000048004097
:1008600000B5024605E012F8010BFFF7EBFFFFF7BA
:10087000F3FE10780028F6D100BF0348008800F08E
:1008800040000028F9D000BD00480040656D626559
:10089000646465642074656368000000BC08000837
:1008A000000000202000000028010008DC080008EB
:1008B00020000020B8060000440100088C08000851
:1008C000666C61736820746573740D0A0000000023
:0C08D0000000000000000000000000001C
:04000005080000ED02
:00000001FF
