:020000040800F2
:10000000600600206D0100087501000877010008F6
:10001000790100087B0100087D0100080000000054
:100020000000000000000000000000007F01000848
:10003000810100080000000083010008850100081C
:100040008701000887010008870100088701000870
:100050008701000887010008870100088701000860
:100060008701000887010008870100088701000850
:100070008701000887010008870100088701000840
:100080008701000887010008870100088701000830
:100090008701000887010008870100088701000820
:1000A0008701000887010008870100088701000810
:1000B0008701000887010008870100088701000800
:1000C00087010008870100088701000887010008F0
:1000D00087010008870100088701000887010008E0
:1000E00087010008870100088701000800F002F876
:1000F00000F02CF80AA090E8000C82448344AAF196
:100100000107DA4501D100F021F8AFF2090EBAE893
:100110000F0013F0010F18BFFB1A43F0010318473B
:1001200030060000400600000023002400250026C1
:10013000103A28BF78C1FBD8520728BF30C148BF4A
:100140000B6070471FB51FBD10B510BD00F031F832
:100150001146FFF7F7FF00F0D4FA00F04FF803B4B0
:10016000FFF7F2FF03BC00F057F800000948804792
:1001700009480047FEE7FEE7FEE7FEE7FEE7FEE789
:10018000FEE7FEE7FEE7FEE704480549054A064BA1
:100190007047000089060008ED000008600000209C
:1001A0006006002060020020600200207047704757
:1001B0007047754600F02CF8AE4605006946534678
:1001C00020F00700854618B020B5FFF7DDFFBDE839
:1001D00020404FF000064FF000074FF000084FF0AE
:1001E000000B21F00701AC46ACE8C009ACE8C0093F
:1001F000ACE8C009ACE8C0098D46704710B50446AC
:10020000AFF300802046BDE81040FFF7A8BF000014
:10021000004870470000002001491820ABBEFEE7EF
:10022000260002007047000010B54278082A04DA60
:100230000278204B53F8221003E002781E4B53F84B
:1002400022104278D31702EB5373DB10A2EBC303E7
:100250009C000323A3400C689C430C604278D31796
:1002600002EB5373DB10A2EBC3039C008378A34023
:100270000C6823430B604278D31702EB5373DB10F7
:10028000A2EBC3039B009B1C03249C400B68A3436D
:100290000B604278D31702EB5373DB10A2EBC3035E
:1002A0009B009B1CC47804FA03F30C6823430B6087
:1002B00010BD0000100700082007000810B58CB022
:1002C00000244C48806940F004004A49886108468F
:1002D000806940F00800886100208DF8180008202F
:1002E0008DF8190003208DF81A0000208DF81B00EE
:1002F0008DF81C0009218DF81D1003218DF81E10AA
:1003000000218DF81F108DF820000A2106A84172E7
:10031000032181720021C17200208DF824000B217D
:1003200006A84173032181730021C17300208DF859
:1003300028000C2106A84174032181740021C17496
:1003400000208DF82C000F2106A84175032181752E
:100350000021C17501208DF8040003208DF80500EF
:100360008DF8060000208DF8070001208DF80800A8
:1003700004218DF8091003218DF80A1000218DF851
:100380000B108DF80C0006218DF80D1003218DF84F
:100390000E1000218DF80F108DF8100007218DF838
:1003A000111003218DF8121000218DF813108DF813
:1003B000140008218DF8151003218DF81610002166
:1003C0008DF8171000BF06E006A901EB8400FFF7C7
:1003D0002BFF601CC4B2062CF6DB002406E001A94A
:1003E00001EB8400FFF720FF601CC4B2052CF6DB94
:1003F0000CB010BD0010024010B5012A0BD10C4BFF
:1004000053F820301B6801248C402343084C54F8D7
:10041000204023600AE0064B53F820301B6801247B
:100420008C40A343024C54F82040236010BD0000D0
:10043000400700087CB50546012203211046FFF75E
:10044000DBFF002204210120FFF7D6FF002407E094
:1004500045FA04F000F001000DF80400601CC4B27D
:10046000082CF5DB9DF8002008210020FFF7C4FFD1
:100470009DF8012009210020FFF7BEFF9DF8022012
:100480000A210020FFF7B8FF9DF803200B21002070
:10049000FFF7B2FF9DF804200C210020FFF7ACFF0E
:1004A0009DF805200F210020FFF7A6FF9DF80620EC
:1004B00003210120FFF7A0FF9DF807200421012060
:1004C000FFF79AFF012208211046FFF795FF0A2047
:1004D00000F00AF9002208210120FFF78DFF7CBD02
:1004E0007CB50546002203210120FFF785FF00228D
:1004F00004210120FFF780FF002407E045FA04F003
:1005000000F001000DF80400601CC4B2082CF5DBFB
:100510009DF8002008210020FFF76EFF9DF80120C4
:1005200009210020FFF768FF9DF802200A21002022
:10053000FFF762FF9DF803200B210020FFF75CFF0F
:100540009DF804200C210020FFF756FF9DF80520A0
:100550000F210020FFF750FF9DF806200321012006
:10056000FFF74AFF9DF8072004210120FFF744FF11
:10057000012208211046FFF73FFF0A2000F0B4F8DF
:10058000002208210120FFF737FF7CBD10B5FFF7DF
:1005900095FE0C20FFF7A4FF8020FFF7A1FF10BD00
:1005A00010B500F001F810BD0CB5002001900090CE
:1005B0003348006840F480303149086000BF30485B
:1005C000006800F4003000900198401C01900098F1
:1005D00018B90198B0F5A06FF1D12948006800F46E
:1005E000003010B10120009001E000200090009840
:1005F000012843D12348006840F0100021490860D9
:100600000846006820F0030008600846006840F0D3
:10061000020008601A484068194948600846406866
:1006200048600846406840F480604860084640687A
:1006300020F47C1048600846406840F4E8104860A8
:100640000846006840F08070086000BF0C480068F1
:1006500000F000700028F9D00948406820F003003D
:10066000074948600846406840F00200486000BF03
:100670000348406800F00C000828F9D10CBD0000C8
:10068000001002400020024010B51348006840F0FE
:1006900001001149086008464068104908400E49A9
:1006A0004860084600680E4908400B490860084643
:1006B000006820F4802008600846406820F4FE00AE
:1006C00048604FF41F008860FFF76AFF4FF000603A
:1006D0000449086010BD0000001002400000FFF84F
:1006E000FFFFF6FE08ED00E0002107E0002200E039
:1006F000521C42F6FF239A42FAD3491C8142F5D399
:100700007047FFF743FF3120FFF794FE00BFFEE77D
:1007100000080140000C014000100140001401409D
:1007200004080140040C014004100140041401407D
:1007300008080140080C014008100140081401405D
:100740000C0801400C0C01400C1001400C1401403D
:100750006007000800000020600600002801000873
:04000005080000ED02
:00000001FF
