:020000040800F2
:10000000680600208901000891010008930100089A
:100010009501000897010008990100080000000000
:100020000000000000000000000000009B0100082C
:100030009D010008000000009F010008A1010008C8
:10004000A3010008A3010008A3010008A301000800
:10005000A3010008A3010008A3010008A3010008F0
:10006000A3010008A3010008A3010008A3010008E0
:10007000A3010008A3010008A3010008A3010008D0
:10008000A3010008A3010008A3010008A3010008C0
:10009000A3010008A3010008A3010008A3010008B0
:1000A000A3010008A3010008A3010008A3010008A0
:1000B000A3010008A3010008A3010008A301000890
:1000C000A3010008A3010008A3010008A301000880
:1000D000A3010008A3010008A3010008A301000870
:1000E000A3010008A3010008A301000800F002F822
:1000F00000F03AF80AA090E8000C82448344AAF188
:100100000107DA4501D100F02FF8AFF2090EBAE885
:100110000F0013F0010F18BFFB1A43F0010318473B
:100120000003000020030000103A24BF78C878C103
:10013000FAD8520724BF30C830C144BF04680C60ED
:10014000704700000023002400250026103A28BF35
:1001500078C1FBD8520728BF30C148BF0B60704739
:100160001FB51FBD10B510BD00F031F81146FFF7E7
:10017000F7FF00F049F900F04FF803B4FFF7F2FF82
:1001800003BC00F057F800000948804709480047C1
:10019000FEE7FEE7FEE7FEE7FEE7FEE7FEE7FEE737
:1001A000FEE7FEE704480549054A064B7047000094
:1001B000F5020008ED000008680000206806002035
:1001C000680200206802002070477047704775463B
:1001D00000F02CF8AE4605006946534620F00700B3
:1001E000854618B020B5FFF7DDFFBDE820404FF091
:1001F00000064FF000074FF000084FF0000B21F011
:100200000701AC46ACE8C009ACE8C009ACE8C009DD
:10021000ACE8C0098D46704710B50446AFF30080C6
:100220002046BDE81040FFF7A8BF00000048704717
:100230000400002001491820ABBEFEE726000200A2
:10024000704710B500F002F810BD00000CB500209A
:10025000019000902548006840F4803023490860F0
:1002600000BF2248006800F4003000900198401C54
:100270000190009818B90198B0F5A06FF1D11B4812
:10028000006800F4003010B10120009001E000206F
:1002900000900098012828D11548006840F010000F
:1002A000134908600846006820F00300086008460B
:1002B000006808600D4840680C494860084640687E
:1002C00048600846406848600846406820F00300DF
:1002D00048600846406840F00100486000BF03489D
:1002E000406800F00C000428F9D10CBD0010024059
:1002F0000020024010B51348006840F00100114989
:10030000086008464068104908400E4948600846A1
:1003100000680E4908400B4908600846006820F450
:10032000802008600846406820F4FE0048604FF4D2
:100330001F008860FFF785FF4FF0006004490860E8
:1003400010BD0000001002400000FFF8FFFFF6FEA5
:1003500008ED00E01748806940F400701549886195
:100360001548006840F0010013490860084600681D
:1003700040F00200086010480830006820F00700D4
:100380000D49083108600846006840F00100086027
:1003900009482430006820F47000074924310860BF
:1003A00005482C30006820F01F0003492C310860FC
:1003B000704700000010024008240140094800680E
:1003C00040F001000749086000BF0648083800688F
:1003D00000F002000028F8D002484430006880B2E3
:1003E0007047000008240140042005498861084640
:1003F000806940F001008861002002490860704770
:100400000010024000080140FFF7EEFFFFF7A2FFD7
:1004100003E0FFF7D3FF01490880FAE7000000205E
:10042000400400080000002004000000280100082B
:100430004404000804000020640600004401000891
:0404400000000000B8
:04000005080000ED02
:00000001FF
