:020000040800F2
:10000000600600206D0100087501000877010008F6
:10001000790100087B0100087D0100080000000054
:100020000000000000000000000000007F01000848
:10003000810100080000000083010008850100081C
:100040008701000887010008870100088701000870
:100050008701000887010008870100088701000860
:100060008701000887010008870100088701000850
:100070008701000887010008870100088701000840
:100080008701000887010008870100088701000830
:100090008701000887010008870100088701000820
:1000A0008701000887010008870100088701000810
:1000B0008701000887010008870100088701000800
:1000C00087010008870100088701000887010008F0
:1000D00087010008870100088701000887010008E0
:1000E00087010008870100088701000800F002F876
:1000F00000F02CF80AA090E8000C82448344AAF196
:100100000107DA4501D100F021F8AFF2090EBAE893
:100110000F0013F0010F18BFFB1A43F0010318473B
:100120006803000078030000002300240025002657
:10013000103A28BF78C1FBD8520728BF30C148BF4A
:100140000B6070471FB51FBD10B510BD00F031F832
:100150001146FFF7F7FF00F063F900F04FF803B422
:10016000FFF7F2FF03BC00F057F800000948804792
:1001700009480047FEE7FEE7FEE7FEE7FEE7FEE789
:10018000FEE7FEE7FEE7FEE704480549054A064BA1
:100190007047000059030008ED00000860000020CF
:1001A0006006002060020020600200207047704757
:1001B0007047754600F02CF8AE4605006946534678
:1001C00020F00700854618B020B5FFF7DDFFBDE839
:1001D00020404FF000064FF000074FF000084FF0AE
:1001E000000B21F00701AC46ACE8C009ACE8C0093F
:1001F000ACE8C009ACE8C0098D46704710B50446AC
:10020000AFF300802046BDE81040FFF7A8BF000014
:10021000004870470000002001491820ABBEFEE7EF
:1002200026000200704700000349C968012282408D
:100230005140014AD1607047001001400848806970
:1002400040F01000064988610648406840F44010BC
:10025000044948600846406820F4800048607047C0
:10026000001002400010014010B500F001F810BD70
:100270000CB50020019000903548006840F48030B3
:100280003349086000BF3248006800F40030009035
:100290000198401C0190009818B90198B0F5A06F22
:1002A000F1D12B48006800F4003010B1012000901B
:1002B00001E0002000900098012848D125480068FE
:1002C00040F01000234908600846006820F0030051
:1002D00008600846006840F0020008601C4840685A
:1002E0001B4948600846406848600846406840F43A
:1002F000806048600846406840F0E060486008461A
:10030000406820F47C1048600846406840F45C1067
:1003100048600846006840F08070086000BF0C48E4
:10032000006800F000700028F9D00948406820F00B
:100330000300074948600846406840F002004860F2
:1003400000BF0348406800F00C000828F9D10CBD3C
:10035000001002400020024010B51348006840F031
:1003600001001149086008464068104908400E49DC
:100370004860084600680E4908400B490860084676
:10038000006820F4802008600846406820F4FE00E1
:1003900048604FF41F008860FFF766FF4FF0006071
:1003A0000449086010BD0000001002400000FFF882
:1003B000FFFFF6FE08ED00E01248C06940F400605F
:1003C0001049C8611048006800200F4908606D207E
:1003D0000860081D00680020091D08606D20086085
:1003E0000846006840F4C07008600846006820F4C1
:1003F00000700860081F006840F08000091F086056
:100400007047000000100240002C004003480068C4
:1004100040F06D000149086070470000002C00406A
:10042000FFF7CAFFFFF70AFF0D20FFF7FDFE64206C
:1004300000F008F804E0FFF7E9FF2D2000F002F8D3
:10044000F9E700000F49C96941F001010D4AD16186
:100450004EF65F219204118590851146098841F07E
:100460000101118000BF4FF08041098A01F00101B4
:100470000029F8D04FF08041098A00214FF08042D6
:10048000118270470010024098040008000000200C
:080490006006000028010008CD
:04000005080000ED02
:00000001FF
