:020000040800F2
:10000000D006002091010008990100089B0100081A
:100010009D0100089F010008A101000800000000E8
:10002000000000000000000000000000A301000824
:10003000A501000800000000A7010008A9010008B0
:10004000AB010008AB010008AB010008AB010008E0
:10005000AB010008AB010008AB010008AB010008D0
:10006000AB010008AB010008AB010008AB010008C0
:10007000AB010008AB010008AB010008AB010008B0
:10008000AB010008AB010008AB010008AB010008A0
:10009000AB010008AB010008AB010008AB01000890
:1000A000AB010008AB010008AB010008AB01000880
:1000B000AB010008AB010008AB010008AB01000870
:1000C000AB010008AB010008AB010008AB01000860
:1000D000AB010008AB010008AB010008AB01000850
:1000E000AB010008AB010008AB01000800F002F80A
:1000F00000F03FF80AA090E8000C82448344AAF183
:100100000107DA4501D100F034F8AFF2090EBAE880
:100110000F0013F0010F18BFFB1A43F0010318473B
:100120007805000098050000103A24BF78C878C10F
:10013000FAD8520724BF30C830C144BF04680C60ED
:10014000704700000023002400250026103A28BF35
:1001500078C1FBD8520728BF30C148BF0B60704739
:10016000732900F0D880002070471FB51FBD10B55F
:1001700010BD00F0D4F81146FFF7F7FF00F012FAB7
:1001800000F0F2F803B4FFF7F2FF03BC00F0FAF856
:100190000948804709480047FEE7FEE7FEE7FEE71B
:1001A000FEE7FEE7FEE7FEE7FEE7FEE70448054957
:1001B000054A064B704700007D040008ED0000086A
:1001C000D0000020D0060020D0020020D002002065
:1001D0000FB41CB5074B06AA7B44694600900598EE
:1001E00000F06FF80020694600F07EF81CBC5DF856
:1001F00014FB00000D0100002DE9F0410E460446FD
:10020000002020622046E168884730B3252805D0C9
:10021000D4E901219047206A401CF2E7E1682046BA
:1002200000278847050018D0A5F14100192802D8F9
:1002300020354FF400673246294620462760FFF7F5
:100240008FFF40B1012804D0F61D26F007060836BE
:10025000D8E7361DD6E72846DAE7206ABDE8F08100
:1002600070B50C460546012A05D02878800600D5D1
:10027000EA69002302E0012305E05B1C934202D2FD
:10028000E05C0028F9D1A869E618C01AA861286ABC
:10029000184428622846AFF3008004E0D5E9012124
:1002A00014F8010B9047B442F8D32846AFF300800E
:1002B00070BD70477047704701694A1C0261087839
:1002C000704700B58FB0CDE9013100210591054996
:1002D0007944CDE9031011466846FFF78DFF0FB052
:1002E00000BD0000E5FFFFFF0A6802F8010B0A608D
:1002F000704710B5436913B1AFF3008001E0FFF719
:10030000AFFF012010BD127800F124010A70002215
:100310004A700122EDE711684FF0FF32E9E77546B8
:1003200000F02CF8AE4605006946534620F0070061
:10033000854618B020B5FFF739FFBDE820404FF0E3
:1003400000064FF000074FF000084FF0000B21F0BF
:100350000701AC46ACE8C009ACE8C009ACE8C0098C
:10036000ACE8C0098D46704710B50446AFF3008075
:100370002046BDE81040FFF705BF00000048704769
:100380007000002001491820ABBEFEE726000200E5
:10039000704710B500F002F810BD00000CB5002049
:1003A000019000903348006840F480303149086083
:1003B00000BF3048006800F4003000900198401CF5
:1003C0000190009818B90198B0F5A06FF1D12948B3
:1003D000006800F4003010B10120009001E000201E
:1003E00000900098012843D12348006840F0100095
:1003F000214908600846006820F0030008600846AC
:10040000006840F0020008601A48406819494860D6
:100410000846406848600846406840F4806048608C
:100420000846406820F47C1048600846406840F464
:10043000501048600846006840F08070086000BFB7
:100440000C48006800F000700028F9D009484068A6
:1004500020F00300074948600846406840F0020069
:10046000486000BF0348406800F00C000828F9D13C
:100470000CBD0000001002400020024010B51348DF
:10048000006840F0010011490860084640681049C2
:1004900008400E494860084600680E4908400B496C
:1004A00008600846006820F480200860084640681C
:1004B00020F4FE0048604FF41F008860FFF769FFDA
:1004C0004FF000600449086010BD000000100240B9
:1004D0000000FFF8FFFFF6FE08ED00E000200E49E7
:1004E000086004E00C480068401C0B4908600A489A
:1004F0000068B0F57A7FF5D300200749086004E072
:1005000005480068401C044908600348006841F23F
:1005100088318842F4D37047140000201E48806957
:1005200000201D4988610846C0690020C86108464E
:10053000806940F0080088610846806940F010003A
:1005400088610846C06940F48020C861134800688B
:100550000020124908600846006840F440700860B6
:100560000846006840F4006008600846006820F40F
:10057000805008600846006840F4804008600848E1
:10058000406840F48010064948600846406820F4FE
:10059000800048607047000000100240040C0140D9
:1005A00000100140FFF7BAFF00F01EF8064800F007
:1005B00057F8064A06A10B48FFF70AFE094800F063
:1005C0004FF800BFFEE700000400002028000020D4
:1005D00020666C6173685F64617461733A2025738F
:1005E0000D0A00003C000020154800880020144936
:1005F0000880081D00880020091D0880081D00884B
:100600000020091D08800E48001F008800200C49AA
:10061000091F08800846008840F48070088008465A
:10062000008840F004000880081D008840F00800A1
:10063000091D08800846008840F400500880704773
:100640000C48004000BF0549098801F080010029DD
:10065000F9D00249091D0880704700000048004099
:1006600000B5024605E012F8010BFFF7EBFFFFF7BC
:1006700035FF10780028F6D100BF0348008800F04D
:1006800040000028F9D000BD0048004048656C6C6F
:100690006F20576F726C6400B806000800000020DD
:1006A0001800000028010008D006000818000020EB
:1006B000B8060000440100088C060008666C6173EF
:1006C0006820746573740D0A0000000000000000CB
:04000005080000ED02
:00000001FF
