:020000040800F2
:10000000680600208901000891010008930100089A
:100010009501000897010008990100080000000000
:100020000000000000000000000000009B0100082C
:100030009D010008000000009F010008A1010008C8
:10004000A3010008A3010008A3010008A301000800
:10005000A3010008A3010008A3010008A3010008F0
:10006000A3010008A3010008A3010008A3010008E0
:10007000A3010008A3010008A3010008A3010008D0
:10008000A3010008A3010008A3010008A3010008C0
:10009000A3010008A3010008A3010008A3010008B0
:1000A000A3010008A3010008A3010008A3010008A0
:1000B000A3010008A3010008A3010008A301000890
:1000C000A3010008A3010008A3010008A301000880
:1000D000A3010008A3010008A3010008A301000870
:1000E000A3010008A3010008A301000800F002F822
:1000F00000F03AF80AA090E8000C82448344AAF188
:100100000107DA4501D100F02FF8AFF2090EBAE885
:100110000F0013F0010F18BFFB1A43F0010318473B
:100120004404000064040000103A24BF78C878C179
:10013000FAD8520724BF30C830C144BF04680C60ED
:10014000704700000023002400250026103A28BF35
:1001500078C1FBD8520728BF30C148BF0B60704739
:100160001FB51FBD10B510BD00F050F81146FFF7C8
:10017000F7FF00F0D7F900F06EF803B4FFF7F2FFD5
:1001800003BC00F075F800000948804709480047A3
:10019000FEE7FEE7FEE7FEE7FEE7FEE7FEE7FEE737
:1001A000FEE7FEE704480549054A064B7047000094
:1001B00031030008ED0000086800002068060020F8
:1001C000680200206802002010B5431C02E010F80D
:1001D000011B71B18107FAD14FF0013202C88C1AAC
:1001E0008C4314EAC211F9D0C01A0A0603D0C01E0B
:1001F00010BDC01A10BD0A0401D0801E10BD090236
:10020000FCD0401E10BD704770477047754600F027
:100210002BF8AE4605006946534620F00700854698
:1002200018B020B5FFF7BEFFBDE820404FF0000634
:100230004FF000074FF000084FF0000B21F00701CE
:10024000AC46ACE8C009ACE8C009ACE8C009ACE811
:10025000C0098D46704710B50446AFF300802046B4
:10026000BDE81040FFF789BF004870470800002034
:1002700001491820ABBEFEE726000200704710B50A
:1002800000F002F810BD00000CB5002001900090B5
:100290002548006840F480302349086000BF2248A8
:1002A000006800F4003000900198401C0190009814
:1002B00018B90198B0F5A06FF1D11B48006800F49F
:1002C000003010B10120009001E000200090009863
:1002D000012828D11548006840F010001349086033
:1002E0000846006820F003000860084600680860BF
:1002F0000D4840680C494860084640684860084618
:10030000406848600846406820F00300486008469E
:10031000406840F00100486000BF0348406800F0BA
:100320000C000428F9D10CBD00100240002002404E
:1003300010B51348006840F00100114908600846F4
:100340004068104908400E494860084600680E4958
:1003500008400B4908600846006820F480200860C7
:100360000846406820F4FE0048604FF41F00886093
:10037000FFF785FF4FF000600449086010BD0000E2
:10038000001002400000FFF8FFFFF6FE08ED00E05D
:1003900000BF0748008800F002000028F9D0044898
:1003A0000088044908800248001D008808807047C2
:1003B00014540040040000201648C069002015496C
:1003C000C86108468069002088610846C06940F419
:1003D0000010C8610846806940F0080088610E4836
:1003E000006800200C4908600846006840F0407032
:1003F00008600846006840F04060086008460068F1
:1004000040F0405008600846006840F040400860F6
:100410007047000000100240000C014015480088A1
:10042000002014490880081D00880020091D08804C
:10043000081F008840F48060091F0880081D00889C
:1004400040F00800091D088028200A491C31088056
:10045000081D00880020091D08800846008840F01B
:10046000090008800348008840F001000149088025
:10047000704700000054004000B502460248028068
:10048000FFF786FF00BD00001054004009480088B7
:1004900040F480700749088000BF06481430008887
:1004A00000F001000028F8D002481430008802490A
:1004B00008807047005400400400002000BF0B4833
:1004C000008800F080000028F9D000BF07480088AD
:1004D00000F004000028F9D004481438008840F4E3
:1004E000007002491439088070470000145400401D
:1004F00070B504462046FFF767FEC5B20DE000BFA9
:100500000748008800F080000028F9D014F8010B9B
:100510000349091F0880681EC5B2002DEFDC70BDBD
:100520001454004010B5FFF747FFFFF777FFFFF7C0
:10053000ADFFA020FFF7A0FF03480068FFF7D8FF3A
:10054000FFF7BCFF002010BD0000002068656C6C48
:100550006F20656D62656464656420776F726C649A
:1005600000000000840500080000002008000000D2
:10057000280100088C050008080000206006000023
:0C058000440100084C05000800000000C9
:04000005080000ED02
:00000001FF
