:020000040800F2
:10000000600600206D0100087501000877010008F6
:10001000790100087B0100087D0100080000000054
:100020000000000000000000000000007F01000848
:10003000810100080000000083010008850100081C
:100040008701000887010008870100088701000870
:100050008701000887010008870100088701000860
:100060008701000887010008870100088701000850
:100070008701000887010008870100088701000840
:100080008701000887010008870100088701000830
:100090008701000887010008870100088701000820
:1000A0008701000887010008870100088701000810
:1000B0008701000887010008870100088701000800
:1000C00087010008870100088701000887010008F0
:1000D00087010008870100088701000887010008E0
:1000E00087010008870100088701000800F002F876
:1000F00000F02CF80AA090E8000C82448344AAF196
:100100000107DA4501D100F021F8AFF2090EBAE893
:100110000F0013F0010F18BFFB1A43F0010318473B
:10012000D8030000E8030000002300240025002677
:10013000103A28BF78C1FBD8520728BF30C148BF4A
:100140000B6070471FB51FBD10B510BD00F050F813
:100150001146FFF7F7FF00F06DF900F06EF803B4F9
:10016000FFF7F2FF03BC00F075F800000948804774
:1001700009480047FEE7FEE7FEE7FEE7FEE7FEE789
:10018000FEE7FEE7FEE7FEE704480549054A064BA1
:100190007047000015030008ED0000086000002013
:1001A00060060020600200206002002010B5431CA1
:1001B00002E010F8011B71B18107FAD14FF0013252
:1001C00002C88C1A8C4314EAC211F9D0C01A0A066C
:1001D00003D0C01E10BDC01A10BD0A0401D0801E7D
:1001E00010BD0902FCD0401E10BD7047704770471B
:1001F000754600F02BF8AE4605006946534620F0E0
:100200000700854618B020B5FFF7BEFFBDE82040C7
:100210004FF000064FF000074FF000084FF0000BC2
:1002200021F00701AC46ACE8C009ACE8C009ACE875
:10023000C009ACE8C0098D46704710B50446AFF35D
:1002400000802046BDE81040FFF789BF0048704796
:100250000000002001491820ABBEFEE72600020086
:10026000704710B500F002F810BD00000CB500207A
:10027000019000902548006840F4803023490860D0
:1002800000BF2248006800F4003000900198401C34
:100290000190009818B90198B0F5A06FF1D11B48F2
:1002A000006800F4003010B10120009001E000204F
:1002B00000900098012828D11548006840F01000EF
:1002C000134908600846006820F0030008600846EB
:1002D000006808600D4840680C494860084640685E
:1002E00048600846406848600846406820F00300BF
:1002F00048600846406840F00100486000BF03487D
:10030000406800F00C000428F9D10CBD0010024038
:100310000020024010B51348006840F00100114968
:10032000086008464068104908400E494860084681
:1003300000680E4908400B4908600846006820F430
:10034000802008600846406820F4FE0048604FF4B2
:100350001F008860FFF785FF4FF0006004490860C8
:1003600010BD0000001002400000FFF8FFFFF6FE85
:1003700008ED00E01648C06900201549C86108462C
:100380008069002088610846C06940F40010C86197
:100390000846806940F0080088610E480068002027
:1003A0000C4908600846006840F040700860084644
:1003B000006840F0406008600846006840F0405027
:1003C00008600846006840F0404008607047000040
:1003D00000100240000C014015480088002014491C
:1003E0000880081D00880020091D0880081F00885B
:1003F00040F48060091F0880081D008840F0080054
:10040000091D088028200A491C310880081D008821
:100410000020091D08800846008840F00900088077
:100420000348008840F0010001490880704700003F
:100430000054004070B52BA42046FFF7B7FEC5B2AC
:100440000026FFF797FFFFF7C7FF2A48008840F410
:1004500080702849088000BF26481430008800F0CA
:1004600001000028F8D0234814300688A020214934
:100470001031088000BF1F481430008800F00200CF
:100480000028F8D01B4814300688001D06880EE0AE
:1004900000BF18481430008800F080000028F8D011
:1004A00014F8010B134910310880681EC5B2002DE5
:1004B000EEDC00BF0F481430008800F080000028F8
:1004C000F8D000BF0B481430008800F0040000286A
:1004D000F8D00848008840F40070064908800020E1
:1004E00070BD000068656C6C6F20656D626564644A
:1004F000656400000054004008050008000000206A
:0805000060060000280100085C
:04000005080000ED02
:00000001FF
