:020000040800F2
:10000000F006002091010008990100089B010008FA
:100010009D0100089F010008A101000800000000E8
:10002000000000000000000000000000A301000824
:10003000A501000800000000A7010008A9010008B0
:10004000AB010008AB010008AB010008AB010008E0
:10005000AB010008AB010008AB010008AB010008D0
:10006000AB010008AB010008AB010008AB010008C0
:10007000AB010008AB010008AB010008AB010008B0
:10008000AB010008AB010008AB010008AB010008A0
:10009000AB010008AB010008AB010008AB01000890
:1000A000AB010008AB010008AB010008AB01000880
:1000B000AB010008AB010008AB010008AB01000870
:1000C000AB010008AB010008AB010008AB01000860
:1000D000AB010008AB010008AB010008AB01000850
:1000E000AB010008AB010008AB01000800F002F80A
:1000F00000F03FF80AA090E8000C82448344AAF183
:100100000107DA4501D100F034F8AFF2090EBAE880
:100110000F0013F0010F18BFFB1A43F0010318473B
:10012000E00B0000000C0000103A24BF78C878C132
:10013000FAD8520724BF30C830C144BF04680C60ED
:10014000704700000023002400250026103A28BF35
:1001500078C1FBD8520728BF30C148BF0B60704739
:10016000642900F07180002070471FB51FBD10B5D5
:1001700010BD00F0BAF91146FFF7F7FF00F05CFC84
:1001800000F0D8F903B4FFF7F2FF03BC00F0E0F988
:100190000948804709480047FEE7FEE7FEE7FEE71B
:1001A000FEE7FEE7FEE7FEE7FEE7FEE70448054957
:1001B000054A064B70470000A9080008ED0000083A
:1001C000F0000020F0060020F0020020F0020020E5
:1001D0000FB41CB5074B06AA7B44694600900598EE
:1001E00000F06BF90020694600F07AF91CBC5DF85C
:1001F00014FB00000503000070B504468569006823
:10020000C10601D5302600E02026C00707D070BD0A
:10021000D4E9012130469047206A401C20626D1EBF
:10022000F6D570BD70B5044685690078C00707D162
:1002300070BDD4E9012120209047206A401C206233
:100240006D1EF6D570BD00002DE9F0410646002474
:1002500010687529314616A510D0AFF3008000282C
:1002600002DA404213A507E031688A0701D512A5DA
:1002700002E0490704D511A5012401E0AFF3008095
:1002800000210A2206F1240709E0B0FBF2FCB0FBD2
:10029000F2F302FB1C00303078541846491C002849
:1002A000F3D123462A463046BDE8F04100F0A7B816
:1002B000000000002D0000002B00000020000000C6
:1002C0002DE9F05F894604464FF0000ADFF824B1BB
:1002D000FB44C0F820A02046E168884700287DD074
:1002E000252806D0D4E901219047206A401C2062CD
:1002F000F1E700255F462046E1688847202806464A
:1003000007DB312E05D2B81910F8200C08B10543CF
:10031000F1E7A80701D525F00405C4F81CA00027C3
:10032000C4F818A02A2E09D0304600F005FB38B3D7
:1003300004EB8708303EC8F8186019E059F8041B30
:10034000204604EB87029161E1688847012F064649
:1003500018D1E069002820DA25F020051DE0D8F842
:10036000180000EB800006EB40003038C8F8180099
:100370002046E1688847064600F0DEFA0028EED104
:10038000012F0AD02E2E08D12046E16888477F1C15
:100390000646022F45F02005C4DBA069002803DAD9
:1003A000404245F00105A061E80701D025F01005A5
:1003B000A6B1A6F14100192802D8203645F40065FF
:1003C0004A463146204625604D46FFF7C9FE60B1DA
:1003D000012807D0ED1D25F0070000E007E000F13F
:1003E000080978E705F1040975E730467AE7206ADD
:1003F000BDE8F09F1A0A00007047704770472DE96A
:10040000F0470D4699469246044600F124080168DB
:10041000880604D5E06921F01001216000E0012088
:10042000A84201DD471B00E00027A1697A1902EB11
:100430000900081AA0612078C00602D42046FFF700
:10044000DBFE002608E0D4E901211AF806009047F7
:10045000206A401C761C20624E45F4DB2078C006E2
:100460000AD52046FFF7C8FE06E0D4E90121302076
:100470009047206A401C2062381EA7F10107F4DC77
:1004800007E0D4E9012118F805009047206A401CD4
:100490002062281EA5F10105F3DC2046FFF7C2FE0D
:1004A0002078000602D50220BDE8F0870120FBE796
:1004B00001694A1C02610878704700B58FB0CDE928
:1004C00001310021059105497944CDE90310114618
:1004D0006846FFF7F5FE0FB000BD0000E5FFFFFF27
:1004E0000A6802F8010B0A607047754600F02CF8A4
:1004F000AE4605006946534620F00700854618B011
:1005000020B5FFF753FEBDE820404FF000064FF046
:1005100000074FF000084FF0000B21F00701AC4638
:10052000ACE8C009ACE8C009ACE8C009ACE8C00957
:100530008D46704710B50446AFF300802046BDE8F5
:100540001040FFF71FBE00000048704790000020D9
:1005500001491820ABBEFEE72600020070470000EC
:100560002DE9F84300F00AF952490860084600688E
:10057000401C08B9002008600026B046B1460020A3
:1005800000904C4800684FF46161B0FBF1F64948B7
:100590000068B0FBF1F201FB12003C21B0FBF1F06E
:1005A00045490861434800684FF46161B0FBF1F2CE
:1005B00001FB12003C21B0FBF1F201FB12003E49AD
:1005C0004861182E18D31820B6FBF0F100FB11601B
:1005D0003949C8600846C0681821B0FBF1F201FB38
:1005E000120030B9012000900026334800F066FB6D
:1005F00004E00020009001E02F48C660002400279E
:1006000000252D480568446887689DF8000001288A
:1006100049D100200090012C14D0032C12D0052CBD
:1006200010D0072C01D1012000E00020082C01D1BE
:10063000012100E0002190FBF1F018B90A2C01D053
:100640000C2C0CD11F2D01D26D1C2CE00C2C02D0D7
:10065000641C012527E0012401257F1C23E0042CD4
:1006600005D0062C03D0092C01D00B2C06D11E2D51
:1006700001D26D1C17E0641C012514E0022C12D17C
:100680001C2D01D26D1C0EE01C2D08D1384600F047
:100690005AF908B16D1C06E0641C012503E01D2D0C
:1006A00001D1641C01250448056044608760BDE8F1
:1006B000F8830000200000204400002000B500F076
:1006C00023F90348008820F008000149088000BD94
:1006D0000428004000B500F017F90348008840F0F6
:1006E00010000149088000BD0428004000B500F05A
:1006F0000BF90348008820F010000149088000BD74
:100700000428004000B51A48C068C0EB0010800003
:10071000C0EB00101749096801EB8000154908601B
:1007200013480069C0EB0010096801EB8000114913
:1007300008600F484069096808440E4908600123B1
:1007400053B100230A4800680B4908600848406814
:10075000486007488068886006480068401C10B9F7
:100760000020044908600348006800F01DF800BD3F
:100770002C0000201C0000204400002000B500F0E8
:10078000C3F8FFF79BFF00F0C9F800BF05480288D7
:10079000001D0388001F00889042F7D143EA024001
:1007A00000BD00001828004000B50246104800684F
:1007B00040F480700E49086000F0A6F8FFF77EFF55
:1007C00000F0ACF8FFF786FF4FF6FF7000EA12402A
:1007D00008490880091D0A80FFF788FF00F094F897
:1007E0000348006820F480700149086000BD0000E3
:1007F000007000401828004010B500F001F810BD4E
:100800000CB50020019000902548006840F480302D
:100810002349086000BF2248006800F400300090BF
:100820000198401C0190009818B90198B0F5A06F8C
:10083000F1D11B48006800F4003010B10120009095
:1008400001E0002000900098012828D11548006898
:1008500040F01000134908600846006820F00300CB
:1008600008600846006808600D4840680C49486008
:100870000846406848600846406848600846406846
:1008800020F0030048600846406840F001004860DE
:1008900000BF0348406800F00C000428F9D10CBDEB
:1008A000001002400020024010B51348006840F0DC
:1008B00001001149086008464068104908400E4987
:1008C0004860084600680E4908400B490860084621
:1008D000006820F4802008600846406820F4FE008C
:1008E00048604FF41F008860FFF786FF4FF00060FC
:1008F0000449086010BD0000001002400000FFF82D
:10090000FFFFF6FE08ED00E000BF0348008800F09E
:1009100020000028F9D070470428004000B5FFF7F8
:10092000F3FF00BF0348008800F008000028F9D05A
:1009300000BD00000428004030380A2801D2012000
:10094000704700207047014601F0030028B9642079
:10095000B1FBF0F200FB121030B94FF4C870B1FBDC
:10096000F0F200FB121008B9012070470020FCE7EC
:1009700000200E49086004E00C480068401C0B4948
:1009800008600A480068B0F57A7FF5D3002007496F
:10099000086004E005480068401C044908600348FA
:1009A000006841F288318842F4D370472800002063
:1009B0001E48806900201D4988610846C0690020E2
:1009C000C8610846806940F008008861084680696F
:1009D00040F0100088610846C06940F48020C8617A
:1009E000134800680020124908600846006840F477
:1009F000407008600846006840F4006008600846DF
:100A0000006820F4805008600846006840F4804088
:100A100008600848406840F480100649486008466D
:100A2000406820F4800048607047000000100240D9
:100A3000040C0140001001401CB5FFF7B9FF00F0A5
:100A4000EDF800F079F8352000210C2340F2E47233
:100A5000CDE9001002211C2000F0C8F848E000F0A9
:100A600067F82449086008460068806800900846D6
:100A700000684368084600681FA102682448FFF721
:100A8000A7FB234800F006F91A4800684069009067
:100A9000184800680369174800681EA1C2681C480E
:100AA000FFF796FB1A4800F0F5F8FFF761FF1148D1
:100AB0000068C0680C280BD10E4800680069012846
:100AC00006D11A48C06840F400501849C8600FE0C9
:100AD00008480068C0680C280AD106480068006908
:100AE000022805D11148C06820F400500F49C860A1
:100AF000B5E700000C00002020446174653A202511
:100B00003032642D253032642D25303264200000CF
:100B10005C0000202054696D653A20253032642D38
:100B2000253032642D253032640D0A00001001405A
:100B300000B5FFF715FD00BD00B51D48C06940F0C8
:100B400080501B49C8610846C06940F00060C86118
:100B5000184800680020174908600846006840F4FB
:100B6000807008601248006A002011490862084637
:100B7000006A40F4807008620846006A40F0010094
:100B800008620846006A40F40040086200BF084856
:100B9000006A00F002000028F9D0FFF7B5FEFFF769
:100BA0008DFDFFF7BBFE47F6FF7000F005F800BDB6
:100BB000001002400070004000B50246FFF7A4FE9E
:100BC000FFF77CFDFFF7AAFEFFF784FD4FF6FF70ED
:100BD00000EA124004490880091D0A80FFF786FDDB
:100BE000FFF792FE00BD0000082800402DE9F04309
:100BF00004460D4616461F46DDE90789064804608F
:100C000045608660C760C0F81080C0F81490FFF798
:100C100079FDBDE8F08300002C0000201548008815
:100C2000002014490880081D00880020091D088044
:100C3000081D00880020091D08800E48001F00883C
:100C400000200C49091F08800846008840F45070B5
:100C500008800846008840F001000880081D0088D0
:100C600040F00800091D08800846008840F4005044
:100C7000088070470C48004000BF0549098801F012
:100C800080010029F9D00249091D08807047000041
:100C90000048004000B5024603E012F8010BFFF7E0
:100CA000EBFF10780028F8D100BF0348008800F05F
:100CB00040000028F9D000BD0048004010B50446AF
:100CC0000023E068C0EB00108000C0EB001003EBD5
:100CD00080032069C0EB001003EB800360690344CC
:100CE000581C00B900231846FFF75EFD10BD040034
:100CF00000080000000000000002000100001000D9
:100D0000200D0008000000202C0000002801000831
:100D10004C0D00082C000020C4060000440100080F
:100D20001F1C1F1E1F1E1F1F1E1F1E1F0000000056
:100D300068656C6C6F0D0A00000000000000000088
:0C0D4000000000000000000000000000A7
:04000005080000ED02
:00000001FF
