:020000040800F2
:10000000600600206D0100087501000877010008F6
:10001000790100087B0100087D0100080000000054
:100020000000000000000000000000007F01000848
:10003000810100080000000083010008850100081C
:100040008701000887010008870100088701000870
:100050008701000887010008870100088701000860
:100060008701000887010008870100088701000850
:100070008701000887010008870100088701000840
:100080008701000887010008870100088701000830
:100090008701000887010008870100088701000820
:1000A0008701000887010008870100088701000810
:1000B0008701000887010008870100088701000800
:1000C00087010008870100088701000887010008F0
:1000D00087010008870100088701000887010008E0
:1000E00087010008870100088701000800F002F876
:1000F00000F02CF80AA090E8000C82448344AAF196
:100100000107DA4501D100F021F8AFF2090EBAE893
:100110000F0013F0010F18BFFB1A43F0010318473B
:100120007402000084020000002300240025002641
:10013000103A28BF78C1FBD8520728BF30C148BF4A
:100140000B6070471FB51FBD10B510BD00F031F832
:100150001146FFF7F7FF00F0D1F800F04FF803B4B5
:10016000FFF7F2FF03BC00F057F800000948804792
:1001700009480047FEE7FEE7FEE7FEE7FEE7FEE789
:10018000FEE7FEE7FEE7FEE704480549054A064BA1
:1001900070470000AD020008ED000008600000207C
:1001A0006006002060020020600200207047704757
:1001B0007047754600F02CF8AE4605006946534678
:1001C00020F00700854618B020B5FFF7DDFFBDE839
:1001D00020404FF000064FF000074FF000084FF0AE
:1001E000000B21F00701AC46ACE8C009ACE8C0093F
:1001F000ACE8C009ACE8C0098D46704710B50446AC
:10020000AFF300802046BDE81040FFF7A8BF000014
:10021000004870470000002001491820ABBEFEE7EF
:1002200026000200704700000CB500211D48019116
:100230000091026842F4803202604FF4A0630268C9
:1002400002F400320092019A521C0192009A12B9F3
:10025000019A9A42F3D10268920320D501210091BC
:1002600011490A6842F010020A600A6822F003028B
:100270000A600A680A6041684160416841604168FB
:100280004160416821F003014160416841F0010192
:1002900041604168C1F381010129FAD10CBD00918F
:1002A0000CBD000000100240002002400F4810B5B5
:1002B000016841F00101016041680D4A114041604F
:1002C00001680C4A11400160016821F4802101603D
:1002D000416821F4FE0141604FF41F018160FFF786
:1002E000A3FF05494FF00060086010BD00100240F8
:1002F0000000FFF8FFFFF6FE08ED00E000F006F852
:1003000000F028F8612000F03DF8FEE70F48816911
:1003100000218161826942F004028261826942F4B3
:10032000805282610A4802680160016841F440110C
:100330000160016841F400010160016841F0405131
:100340000160016841F00041016070470010024007
:10035000000801400A48018800210180018841F01D
:1003600010010180818841F004018180018841F001
:1003700004010180018841F04001018070470000C4
:100380000030014002490A899207FCD588817047F4
:1003900000300140A40300080000002060060000B7
:0403A0002801000828
:04000005080000ED02
:00000001FF
