:020000040800F2
:10000000600600206D0100087501000877010008F6
:10001000790100087B0100087D0100080000000054
:100020000000000000000000000000007F01000848
:10003000810100080000000083010008850100081C
:100040008701000887010008870100088701000870
:100050008701000887010008870100088701000860
:100060008701000887010008870100088701000850
:100070008701000887010008870100088701000840
:100080008701000887010008870100088701000830
:100090008701000887010008870100088701000820
:1000A0008701000887010008870100088701000810
:1000B0008701000887010008870100088701000800
:1000C00087010008870100088701000887010008F0
:1000D00087010008870100088701000887010008E0
:1000E00087010008870100088701000800F002F876
:1000F00000F02CF80AA090E8000C82448344AAF196
:100100000107DA4501D100F021F8AFF2090EBAE893
:100110000F0013F0010F18BFFB1A43F0010318473B
:1001200034040000440400000023002400250026BD
:10013000103A28BF78C1FBD8520728BF30C148BF4A
:100140000B6070471FB51FBD10B510BD00F031F832
:100150001146FFF7F7FF00F099F900F04FF803B4EC
:10016000FFF7F2FF03BC00F057F800000948804792
:1001700009480047FEE7FEE7FEE7FEE7FEE7FEE789
:10018000FEE7FEE7FEE7FEE704480549054A064BA1
:10019000704700002D040008ED00000860000020FA
:1001A0006006002060020020600200207047704757
:1001B0007047754600F02CF8AE4605006946534678
:1001C00020F00700854618B020B5FFF7DDFFBDE839
:1001D00020404FF000064FF000074FF000084FF0AE
:1001E000000B21F00701AC46ACE8C009ACE8C0093F
:1001F000ACE8C009ACE8C0098D46704710B50446AC
:10020000AFF300802046BDE81040FFF7A8BF000014
:10021000004870470000002001491820ABBEFEE7EF
:10022000260002007047000010B54278082A04DA60
:100230000278204B53F8221003E002781E4B53F84B
:1002400022104278D31702EB5373DB10A2EBC303E7
:100250009C000323A3400C689C430C604278D31796
:1002600002EB5373DB10A2EBC3039C008378A34023
:100270000C6823430B604278D31702EB5373DB10F7
:10028000A2EBC3039B009B1C03249C400B68A3436D
:100290000B604278D31702EB5373DB10A2EBC3035E
:1002A0009B009B1CC47804FA03F30C6823430B6087
:1002B00010BD0000140500082405000870B50246B2
:1002C0000024082903DA0E4850F8223002E00D48D5
:1002D00050F82230CD1701EB5575ED10A1EBC50597
:1002E000AE001D68F54005F0030535B9064850F825
:1002F00022000068C84000F00104204670BD0000E4
:1003000014050008240500083405000810B55AB982
:100310000B4B53F820301B6801248C402343084CBE
:1003200054F8204023600AE0054B53F820301B6846
:1003300001248C40A343024C54F82040236010BD9C
:100340004405000810B500F001F810BD0CB5002000
:10035000019000903348006840F4803031490860D3
:1003600000BF3048006800F4003000900198401C45
:100370000190009818B90198B0F5A06FF1D1294803
:10038000006800F4003010B10120009001E000206E
:1003900000900098012843D12348006840F01000E5
:1003A000214908600846006820F0030008600846FC
:1003B000006840F0020008601A4840681949486027
:1003C0000846406848600846406840F480604860DD
:1003D0000846406820F47C1048600846406840F4B5
:1003E000E81048600846006840F08070086000BF70
:1003F0000C48006800F000700028F9D009484068F7
:1004000020F00300074948600846406840F00200B9
:10041000486000BF0348406800F00C000828F9D18C
:100420000CBD0000001002400020024010B513482F
:10043000006840F001001149086008464068104912
:1004400008400E494860084600680E4908400B49BC
:1004500008600846006820F480200860084640686C
:1004600020F4FE0048604FF41F008860FFF76AFF29
:100470004FF000600449086010BD00000010024009
:100480000000FFF8FFFFF6FE08ED00E01CB5204875
:10049000806940F004001E4988610846806940F088
:1004A0001000886102208DF804000D208DF80500F1
:1004B00003208DF8060000208DF8070001A8FFF743
:1004C000B3FE00208DF800008DF801008DF80200C9
:1004D00001208DF803006846FFF7A6FE17E0002113
:1004E0000846FFF7EBFE01280CD100220D21022067
:1004F000FFF70CFF00BF00210846FFF7DFFE0128D1
:10050000F9D004E001220D210220FFF7FFFEE6E70B
:100510000010024000080140000C014000100140A2
:100520000014014004080140040C01400410014083
:100530000414014008080140080C01400810014063
:10054000081401400C0801400C0C01400C10014043
:100550000C14014064050008000000206006000043
:040560002801000866
:04000005080000ED02
:00000001FF
