:020000040800F2
:100000007006002089010008910100089301000892
:100010009501000897010008990100080000000000
:100020000000000000000000000000009B0100082C
:100030009D010008000000009F010008A1010008C8
:10004000A3010008A3010008A3010008A301000800
:10005000A3010008A3010008A3010008A3010008F0
:10006000A3010008A3010008A3010008A3010008E0
:10007000A3010008A3010008A3010008A3010008D0
:10008000A3010008A3010008A3010008A3010008C0
:10009000A3010008A3010008A3010008A3010008B0
:1000A000A3010008A3010008A3010008A3010008A0
:1000B000A3010008A3010008A3010008A301000890
:1000C000A3010008A3010008A3010008A301000880
:1000D000A3010008A3010008A3010008A301000870
:1000E000A3010008A3010008A301000800F002F822
:1000F00000F03AF80AA090E8000C82448344AAF188
:100100000107DA4501D100F02FF8AFF2090EBAE885
:100110000F0013F0010F18BFFB1A43F0010318473B
:100120003805000058050000103A24BF78C878C18F
:10013000FAD8520724BF30C830C144BF04680C60ED
:10014000704700000023002400250026103A28BF35
:1001500078C1FBD8520728BF30C148BF0B60704739
:100160001FB51FBD10B510BD00F031F81146FFF7E7
:10017000F7FF00F003FA00F04FF803B4FFF7F2FFC7
:1001800003BC00F057F800000948804709480047C1
:10019000FEE7FEE7FEE7FEE7FEE7FEE7FEE7FEE737
:1001A000FEE7FEE704480549054A064B7047000094
:1001B00001050008ED000008700000207006002016
:1001C000700200207002002070477047704775462B
:1001D00000F02CF8AE4605006946534620F00700B3
:1001E000854618B020B5FFF7DDFFBDE820404FF091
:1001F00000064FF000074FF000084FF0000B21F011
:100200000701AC46ACE8C009ACE8C009ACE8C009DD
:10021000ACE8C0098D46704710B50446AFF30080C6
:100220002046BDE81040FFF7A8BF00000048704717
:100230000C00002001491820ABBEFEE7260002009A
:100240007047000010B54278082A04DA0278204B83
:1002500053F8221003E002781E4B53F82210427824
:10026000D31702EB5373DB10A2EBC3039C000323F1
:10027000A3400C689C430C604278D31702EB537385
:10028000DB10A2EBC3039C008378A3400C682343DC
:100290000B604278D31702EB5373DB10A2EBC3035E
:1002A0009B009B1C03249C400B68A3430B6042787B
:1002B000D31702EB5373DB10A2EBC3039B009B1C11
:1002C000C47804FA03F30C6823430B6010BD0000EC
:1002D000180600082806000810B588B000243E481B
:1002E000806940F004003C4988610846806940F01C
:1002F0000800886100208DF8080008208DF80900AA
:1003000003208DF80A0000208DF80B008DF80C00FA
:1003100009218DF80D1003218DF80E1000218DF8A4
:100320000F108DF810000A218DF8111003218DF89F
:10033000121000218DF813108DF814000B218DF888
:10034000151003218DF8161000218DF817108DF867
:1003500018000C218DF8191003218DF81A100021B6
:100360008DF81B108DF81C000F218DF81D10032136
:100370008DF81E1000218DF81F1001208DF800004F
:1003800003208DF801008DF8020000208DF8030095
:1003900001208DF8040004218DF8051003218DF84B
:1003A000061000218DF8071000BF06E002A901EB3E
:1003B0008400FFF747FF601CC4B2062CF6DB002464
:1003C00006E0694601EB8400FFF73CFF601CC4B205
:1003D000022CF6DB08B010BD0010024010B5012A57
:1003E0000BD10C4B53F820301B6801248C40234365
:1003F000084C54F8204023600AE0064B53F82030A4
:100400001B6801248C40A343024C54F82040236015
:1004100010BD00004806000810B500F001F810BD3E
:100420000CB50020019000903348006840F4803003
:100430003149086000BF3048006800F40030009087
:100440000198401C0190009818B90198B0F5A06F70
:10045000F1D12948006800F4003010B1012000906B
:1004600001E0002000900098012843D12348006853
:1004700040F01000214908600846006820F00300A1
:1004800008600846006840F0020008601A484068AA
:10049000194948600846406848600846406840F48A
:1004A000806048600846406820F47C104860084638
:1004B000406840F4E81048600846006840F08070EA
:1004C000086000BF0C48006800F000700028F9D0F8
:1004D0000948406820F00300074948600846406822
:1004E00040F00200486000BF0348406800F00C0084
:1004F0000828F9D10CBD0000001002400020024085
:1005000010B51348006840F0010011490860084622
:100510004068104908400E494860084600680E4986
:1005200008400B4908600846006820F480200860F5
:100530000846406820F4FE0048604FF41F008860C1
:10054000FFF76AFF4FF000600449086010BD00002B
:10055000001002400000FFF8FFFFF6FE08ED00E08B
:10056000002107E0002200E0521C42F6FF239A42DD
:10057000FAD3491C8142F5D3704700001CB5FFF740
:10058000ABFE46E0002542E0002408E02148405D43
:10059000204100F001000DF80400601CC4B2082CDA
:1005A000F4DB9DF8002008210020FFF717FF9DF8DD
:1005B000012009210020FFF711FF9DF802200A21E8
:1005C0000020FFF70BFF9DF803200B210020FFF711
:1005D00005FF9DF804200C210020FFF7FFFE9DF889
:1005E00005200F210020FFF7F9FE9DF806200321CA
:1005F0000120FFF7F3FE9DF8072004210120FFF7FB
:10060000EDFE4FF47A70FFF7ABFF681CC5B20A2D00
:10061000BADBB7E70000002000080140000C0140F1
:10062000001001400014014004080140040C014086
:10063000041001400414014008080140080C014066
:1006400008100140081401400C0801400C0C014046
:100650000C1001400C140140780600080000002036
:100660000C00000028010008840600080C0000208F
:1006700064060000440100083F065B4F666D7D077D
:040680007F6F000088
:04000005080000ED02
:00000001FF
